{
  "contractName": "VinToken",
  "abi": [
    {
      "constant": true,
      "inputs": [],
      "name": "name",
      "outputs": [
        {
          "name": "",
          "type": "string"
        }
      ],
      "payable": false,
      "stateMutability": "view",
      "type": "function"
    },
    {
      "constant": true,
      "inputs": [],
      "name": "decimals",
      "outputs": [
        {
          "name": "",
          "type": "uint256"
        }
      ],
      "payable": false,
      "stateMutability": "view",
      "type": "function"
    },
    {
      "constant": true,
      "inputs": [],
      "name": "totalToken",
      "outputs": [
        {
          "name": "",
          "type": "uint256"
        }
      ],
      "payable": false,
      "stateMutability": "view",
      "type": "function"
    },
    {
      "constant": true,
      "inputs": [],
      "name": "symbol",
      "outputs": [
        {
          "name": "",
          "type": "string"
        }
      ],
      "payable": false,
      "stateMutability": "view",
      "type": "function"
    },
    {
      "constant": true,
      "inputs": [],
      "name": "price",
      "outputs": [
        {
          "name": "",
          "type": "uint256"
        }
      ],
      "payable": false,
      "stateMutability": "view",
      "type": "function"
    },
    {
      "inputs": [],
      "payable": false,
      "stateMutability": "nonpayable",
      "type": "constructor"
    },
    {
      "constant": true,
      "inputs": [],
      "name": "totalSupply",
      "outputs": [
        {
          "name": "",
          "type": "uint256"
        }
      ],
      "payable": false,
      "stateMutability": "view",
      "type": "function"
    },
    {
      "constant": true,
      "inputs": [
        {
          "name": "_owner",
          "type": "address"
        }
      ],
      "name": "balanceOf",
      "outputs": [
        {
          "name": "",
          "type": "uint256"
        }
      ],
      "payable": false,
      "stateMutability": "view",
      "type": "function"
    },
    {
      "constant": false,
      "inputs": [
        {
          "name": "to",
          "type": "address"
        },
        {
          "name": "tokens",
          "type": "uint256"
        }
      ],
      "name": "transfer",
      "outputs": [
        {
          "name": "",
          "type": "bool"
        }
      ],
      "payable": false,
      "stateMutability": "nonpayable",
      "type": "function"
    },
    {
      "constant": false,
      "inputs": [
        {
          "name": "_from",
          "type": "address"
        },
        {
          "name": "_to",
          "type": "address"
        },
        {
          "name": "_value",
          "type": "uint256"
        }
      ],
      "name": "transferFrom",
      "outputs": [
        {
          "name": "",
          "type": "bool"
        }
      ],
      "payable": false,
      "stateMutability": "nonpayable",
      "type": "function"
    },
    {
      "constant": false,
      "inputs": [
        {
          "name": "_spender",
          "type": "address"
        },
        {
          "name": "_value",
          "type": "uint256"
        }
      ],
      "name": "approve",
      "outputs": [
        {
          "name": "",
          "type": "bool"
        }
      ],
      "payable": false,
      "stateMutability": "nonpayable",
      "type": "function"
    },
    {
      "constant": false,
      "inputs": [
        {
          "name": "_owner",
          "type": "address"
        },
        {
          "name": "_spender",
          "type": "address"
        }
      ],
      "name": "allowance",
      "outputs": [
        {
          "name": "",
          "type": "uint256"
        }
      ],
      "payable": false,
      "stateMutability": "nonpayable",
      "type": "function"
    }
  ],
  "bytecode": "0x608060405234801561001057600080fd5b50610019610109565b6040805180820190915260088082527f56696e546f6b656e000000000000000000000000000000000000000000000000602090920191825261005d91600091610120565b506000600155633b9aca006004556040805180820190915260038082527f56696e000000000000000000000000000000000000000000000000000000000060209092019182526100af91600291610120565b505066038d7ea4c6800060035560408051808201825233808252600454602080840191825260009283526005905292902090518154600160a060020a031916600160a060020a0390911617815590516001909101556101bb565b604080518082019091526000808252602082015290565b828054600181600116156101000203166002900490600052602060002090601f016020900481019282601f1061016157805160ff191683800117855561018e565b8280016001018555821561018e579182015b8281111561018e578251825591602001919060010190610173565b5061019a92915061019e565b5090565b6101b891905b8082111561019a57600081556001016101a4565b90565b6106d5806101ca6000396000f3006080604052600436106100ae5763ffffffff7c010000000000000000000000000000000000000000000000000000000060003504166306fdde0381146100b3578063095ea7b31461013d57806318160ddd1461017557806323b872dd1461019c578063313ce567146101c6578063626be567146101db57806370a08231146101f057806395d89b4114610211578063a035b1fe14610226578063a9059cbb1461023b578063dd62ed3e1461025f575b600080fd5b3480156100bf57600080fd5b506100c8610286565b6040805160208082528351818301528351919283929083019185019080838360005b838110156101025781810151838201526020016100ea565b50505050905090810190601f16801561012f5780820380516001836020036101000a031916815260200191505b509250505060405180910390f35b34801561014957600080fd5b50610161600160a060020a0360043516602435610314565b604080519115158252519081900360200190f35b34801561018157600080fd5b5061018a6103ec565b60408051918252519081900360200190f35b3480156101a857600080fd5b50610161600160a060020a03600435811690602435166044356103f2565b3480156101d257600080fd5b5061018a610513565b3480156101e757600080fd5b5061018a610519565b3480156101fc57600080fd5b5061018a600160a060020a036004351661051f565b34801561021d57600080fd5b506100c861053d565b34801561023257600080fd5b5061018a610595565b34801561024757600080fd5b50610161600160a060020a036004351660243561059b565b34801561026b57600080fd5b5061018a600160a060020a036004358116906024351661067e565b6000805460408051602060026001851615610100026000190190941693909304601f8101849004840282018401909252818152929183018282801561030c5780601f106102e15761010080835404028352916020019161030c565b820191906000526020600020905b8154815290600101906020018083116102ef57829003601f168201915b505050505081565b3360009081526005602052604081206001015482908111156103bd57604080517f08c379a000000000000000000000000000000000000000000000000000000000815260206004820152603b60248201527f53e1bb9120746f6b656e2063e1bba7612062e1baa16e206e68e1bb8f2068c6a160448201527f6e2073e1bb91202062e1baa16e20c491616e67206368e1bb8d6e200000000000606482015290519081900360840190fd5b5050336000908152600660209081526040808320600160a060020a039590951683529390529190912055600190565b60045490565b6000838280610401833361067e565b10156104ba57604080517f08c379a000000000000000000000000000000000000000000000000000000000815260206004820152605060248201527f53e1bb9120746f6b656e20c491c6b0e1bba36320e1bba77920717579e1bb816e60448201527f202063686f2062e1baa16e206e68e1bb8f2068c6a16e2073e1bb91202062e1ba60648201527fa16e20c491616e67206368e1bb8d6e2000000000000000000000000000000000608482015290519081900360a40190fd5b505050600160a060020a0392831660009081526005602081815260408084206001908101805487900390556006835281852033865283528185208054879003905595909616835252929092208101805490920190915590565b60015481565b60045481565b600160a060020a031660009081526005602052604090206001015490565b6002805460408051602060018416156101000260001901909316849004601f8101849004840282018401909252818152929183018282801561030c5780601f106102e15761010080835404028352916020019161030c565b60035481565b33600090815260056020526040812060010154829081111561064457604080517f08c379a000000000000000000000000000000000000000000000000000000000815260206004820152603b60248201527f53e1bb9120746f6b656e2063e1bba7612062e1baa16e206e68e1bb8f2068c6a160448201527f6e2073e1bb91202062e1baa16e20c491616e67206368e1bb8d6e200000000000606482015290519081900360840190fd5b505033600090815260056020526040808220600190810180548590039055600160a060020a03949094168252902082018054909101905590565b600160a060020a039182166000908152600660209081526040808320939094168252919091522054905600a165627a7a723058209268bd0d6faeefe06b0676ab4e6d7cfff3f6c809c3e13d5ce5d1010e8b8e496f0029",
  "source": "pragma solidity ^0.4.24;\n\ncontract VinToken{\n\n    string  public name;\n    uint    public decimals;\n    string  public symbol;\n    uint    public price;\n    uint    public totalToken;\n\n    struct Owner{\n        address id;\n        uint tokenOwner;\n    }\n\n    mapping(address=>Owner)toOwner;\n\n    mapping(address => mapping(address => uint)) allowed;\n\n    constructor(){\n        name        =   \"VinToken\";\n        decimals    =   0;\n        totalToken  =   1000000000;\n        symbol      =   \"Vin\";\n        price       =   0.001 ether;\n        Owner memory owner  =   Owner(msg.sender,totalToken);\n        toOwner[msg.sender] =   owner;\n    }\n\n    function totalSupply() public view returns(uint){\n        return totalToken;\n    }\n\n    function balanceOf (address _owner) public view returns (uint){\n        return toOwner[_owner].tokenOwner;\n    }\n\n    function transfer(address to, uint tokens) public checkNumberToken(tokens) returns (bool) {\n\n        toOwner[msg.sender].tokenOwner  -=  tokens;\n        toOwner[to].tokenOwner          +=  tokens;\n        return true;\n\n    }\n\n    function transferFrom(address _from, address _to, uint _value)public checkAllowance(_from,_value) returns (bool){\n\n        toOwner[_from].tokenOwner   -=  _value;\n        allowed[_from][msg.sender]  -=  _value;\n        toOwner[_to].tokenOwner     +=  _value;\n        return true;\n\n    }\n\n    function approve(address _spender, uint _value)public checkNumberToken(_value) returns (bool){\n\n        allowed[msg.sender][_spender]   =   _value;\n        return true;\n\n    }\n\n    function allowance (address _owner, address _spender)public returns (uint){\n\n        return uint(allowed[_owner][_spender]);\n\n    }\n\n\n    modifier checkNumberToken(uint tokens){\n\n        require(toOwner[msg.sender].tokenOwner>=tokens,\"Số token của bạn nhỏ hơn số  bạn đang chọn \");\n        _;\n\n    }\n\n    modifier checkAllowance(address _from,uint tokens){\n\n        require(allowance(_from,msg.sender)>=tokens,\"Số token được ủy quyền  cho bạn nhỏ hơn số  bạn đang chọn \");\n        _;\n\n    }\n}\n",
  "sourcePath": "/home/nvt1904/Documents/BlockChain/MetaCoin/contracts/VinToken.sol",
  "compiler": {
    "name": "solc",
    "version": "0.4.24+commit.e67f0147.Emscripten.clang"
  },
  "schemaVersion": "2.0.1",
  "updatedAt": "2018-10-31T10:41:34.482Z"
}