{
  "contractName": "Bet",
  "abi": [
    {
      "constant": true,
      "inputs": [
        {
          "name": "",
          "type": "uint256"
        }
      ],
      "name": "listPeople",
      "outputs": [
        {
          "name": "adres",
          "type": "address"
        },
        {
          "name": "number",
          "type": "uint256"
        }
      ],
      "payable": false,
      "stateMutability": "view",
      "type": "function"
    },
    {
      "constant": true,
      "inputs": [
        {
          "name": "",
          "type": "uint256"
        },
        {
          "name": "",
          "type": "uint256"
        }
      ],
      "name": "listWin",
      "outputs": [
        {
          "name": "",
          "type": "address"
        }
      ],
      "payable": false,
      "stateMutability": "view",
      "type": "function"
    },
    {
      "constant": true,
      "inputs": [],
      "name": "owner",
      "outputs": [
        {
          "name": "",
          "type": "address"
        }
      ],
      "payable": false,
      "stateMutability": "view",
      "type": "function"
    },
    {
      "constant": true,
      "inputs": [
        {
          "name": "",
          "type": "address"
        }
      ],
      "name": "playerToNumber",
      "outputs": [
        {
          "name": "",
          "type": "uint256"
        }
      ],
      "payable": false,
      "stateMutability": "view",
      "type": "function"
    },
    {
      "inputs": [],
      "payable": false,
      "stateMutability": "nonpayable",
      "type": "constructor"
    },
    {
      "constant": false,
      "inputs": [
        {
          "name": "_number",
          "type": "uint256"
        }
      ],
      "name": "betting",
      "outputs": [],
      "payable": true,
      "stateMutability": "payable",
      "type": "function"
    }
  ],
  "bytecode": "0x608060405234801561001057600080fd5b50336000806101000a81548173ffffffffffffffffffffffffffffffffffffffff021916908373ffffffffffffffffffffffffffffffffffffffff16021790555061084a806100606000396000f30060806040526004361061006d576000357c0100000000000000000000000000000000000000000000000000000000900463ffffffff168063452e759114610072578063646a2733146100e65780638da5cb5b1461015d5780638ec508a7146101b4578063eadc56d21461020b575b600080fd5b34801561007e57600080fd5b5061009d6004803603810190808035906020019092919050505061022b565b604051808373ffffffffffffffffffffffffffffffffffffffff1673ffffffffffffffffffffffffffffffffffffffff1681526020018281526020019250505060405180910390f35b3480156100f257600080fd5b5061011b600480360381019080803590602001909291908035906020019092919050505061027e565b604051808273ffffffffffffffffffffffffffffffffffffffff1673ffffffffffffffffffffffffffffffffffffffff16815260200191505060405180910390f35b34801561016957600080fd5b506101726102cb565b604051808273ffffffffffffffffffffffffffffffffffffffff1673ffffffffffffffffffffffffffffffffffffffff16815260200191505060405180910390f35b3480156101c057600080fd5b506101f5600480360381019080803573ffffffffffffffffffffffffffffffffffffffff1690602001909291905050506102f0565b6040518082815260200191505060405180910390f35b61022960048036038101908080359060200190929190505050610308565b005b60018181548110151561023a57fe5b90600052602060002090600202016000915090508060000160009054906101000a900473ffffffffffffffffffffffffffffffffffffffff16908060010154905082565b60036020528160005260406000208181548110151561029957fe5b906000526020600020016000915091509054906101000a900473ffffffffffffffffffffffffffffffffffffffff1681565b6000809054906101000a900473ffffffffffffffffffffffffffffffffffffffff1681565b60026020528060005260406000206000915090505481565b806000600260003373ffffffffffffffffffffffffffffffffffffffff1673ffffffffffffffffffffffffffffffffffffffff1681526020019081526020016000205414151561035757600080fd5b670de0b6b3a7640000341015151561036e57600080fd5b60008111801561037e5750600b81105b151561038957600080fd5b81600260003373ffffffffffffffffffffffffffffffffffffffff1673ffffffffffffffffffffffffffffffffffffffff16815260200190815260200160002081905550600360008381526020019081526020016000203390806001815401808255809150509060018203906000526020600020016000909192909190916101000a81548173ffffffffffffffffffffffffffffffffffffffff021916908373ffffffffffffffffffffffffffffffffffffffff16021790555050600160408051908101604052803373ffffffffffffffffffffffffffffffffffffffff168152602001848152509080600181540180825580915050906001820390600052602060002090600202016000909192909190915060008201518160000160006101000a81548173ffffffffffffffffffffffffffffffffffffffff021916908373ffffffffffffffffffffffffffffffffffffffff160217905550602082015181600101555050506104f86104fc565b5050565b60006060600080600360018054905014156107045761051961070a565b9350600360008581526020019081526020016000208054806020026020016040519081016040528092919081815260200182805480156105ae57602002820191906000526020600020905b8160009054906101000a900473ffffffffffffffffffffffffffffffffffffffff1673ffffffffffffffffffffffffffffffffffffffff1681526020019060010190808311610564575b505050505092506000835111156106735782513073ffffffffffffffffffffffffffffffffffffffff16318115156105e257fe5b049150600090505b825181101561065e57828181518110151561060157fe5b9060200190602002015173ffffffffffffffffffffffffffffffffffffffff166108fc839081150290604051600060405180830381858888f19350505050158015610650573d6000803e3d6000fd5b5080806001019150506105ea565b600060018161066d919061079e565b50610703565b6000809054906101000a900473ffffffffffffffffffffffffffffffffffffffff1673ffffffffffffffffffffffffffffffffffffffff166108fc3073ffffffffffffffffffffffffffffffffffffffff16319081150290604051600060405180830381858888f193505050501580156106f1573d6000803e3d6000fd5b506000600181610701919061079e565b505b5b50505050565b6000806001600a4233600454604051808481526020018373ffffffffffffffffffffffffffffffffffffffff1673ffffffffffffffffffffffffffffffffffffffff166c01000000000000000000000000028152601401828152602001935050505060405180910390206001900481151561078157fe5b060190506004600081548092919060010191905055508091505090565b8154818355818111156107cb576002028160020283600052602060002091820191016107ca91906107d0565b5b505050565b61081b91905b8082111561081757600080820160006101000a81549073ffffffffffffffffffffffffffffffffffffffff02191690556001820160009055506002016107d6565b5090565b905600a165627a7a723058203d00dc006fb6714295e08fdcca9a38589f05ba25b58704157434a673b2a784200029",
  "source": "pragma solidity ^0.4.17;\ncontract Bet{\n    address public owner;\n    struct infor{\n        address adres;\n        uint number;\n    }\n    infor[] public listPeople;\n    mapping(address => uint) public playerToNumber; //check mỗi ng chỉ đc đặt 1 lần\n    mapping(uint => address[]) public listWin;\n    uint nonce;\n    constructor() public{\n        owner = msg.sender;\n    }\n    modifier check(uint _number){\n        require(playerToNumber[msg.sender] == 0);  //check mỗi ng chỉ đc đặt 1 lần\n        require(msg.value >= 1 ether);\n        require(_number >0 && _number <11);\n        _;\n    }\n    function random() internal returns (uint) {\n        uint random = uint(keccak256(now, msg.sender, nonce)) % 10+1;\n        nonce++;\n        return random;\n    }\n    function betting(uint _number) check(_number)  public  payable{\n        playerToNumber[msg.sender] = _number;   //check mỗi ng chỉ đc đặt 1 lần\n        listWin[_number].push(msg.sender);  // list ng đặt cùng 1 số\n        listPeople.push(infor(msg.sender,_number));\n        run();\n    }\n    function run() internal{\n        if(listPeople.length == 3){\n        uint result = random();\n        address[] memory lisAdresWin = listWin[result];\n            if(lisAdresWin.length > 0){\n                uint amountMoneyWin = this.balance/lisAdresWin.length;\n                    for(uint i =0; i <lisAdresWin.length; i ++){\n                        lisAdresWin[i].transfer(amountMoneyWin);\n                    }\n                listPeople.length = 0;\n                }\n            else {\n                owner.transfer(this.balance);\n                listPeople.length = 0;\n            }\n        }\n    }\n}",
  "sourcePath": "/home/trientt/Desktop/dapp/HelloWorld/contracts/Bet.sol",
  "compiler": {
    "name": "solc",
    "version": "0.4.24+commit.e67f0147.Emscripten.clang"
  },
  "schemaVersion": "2.0.1",
  "updatedAt": "2018-11-09T10:27:51.272Z"
}