{
  "contractName": "TruyXuatTT",
  "abi": [
    {
      "constant": true,
      "inputs": [
        {
          "name": "",
          "type": "uint256"
        }
      ],
      "name": "lisPeople",
      "outputs": [
        {
          "name": "name",
          "type": "string"
        },
        {
          "name": "age",
          "type": "uint256"
        },
        {
          "name": "sex",
          "type": "string"
        }
      ],
      "payable": false,
      "stateMutability": "view",
      "type": "function"
    },
    {
      "constant": false,
      "inputs": [
        {
          "name": "_name",
          "type": "string"
        },
        {
          "name": "_age",
          "type": "uint256"
        },
        {
          "name": "_sex",
          "type": "string"
        }
      ],
      "name": "setPeople",
      "outputs": [
        {
          "name": "",
          "type": "uint256"
        }
      ],
      "payable": false,
      "stateMutability": "nonpayable",
      "type": "function"
    },
    {
      "constant": true,
      "inputs": [
        {
          "name": "id",
          "type": "uint256"
        }
      ],
      "name": "getPeoplebyId",
      "outputs": [
        {
          "name": "_name",
          "type": "string"
        },
        {
          "name": "_age",
          "type": "uint256"
        },
        {
          "name": "_sex",
          "type": "string"
        }
      ],
      "payable": false,
      "stateMutability": "view",
      "type": "function"
    },
    {
      "constant": true,
      "inputs": [],
      "name": "getAllPeople",
      "outputs": [
        {
          "components": [
            {
              "name": "name",
              "type": "string"
            },
            {
              "name": "age",
              "type": "uint256"
            },
            {
              "name": "sex",
              "type": "string"
            }
          ],
          "name": "",
          "type": "tuple[]"
        }
      ],
      "payable": false,
      "stateMutability": "view",
      "type": "function"
    }
  ],
  "bytecode": "0x608060405234801561001057600080fd5b50610b9d806100206000396000f300608060405260043610610062576000357c0100000000000000000000000000000000000000000000000000000000900463ffffffff168063384aefb41461006757806382b94911146100a657806385a26d7d146100e3578063943688541461010e575b600080fd5b34801561007357600080fd5b5061008e60048036036100899190810190610838565b61014d565b60405161009d93929190610a08565b60405180910390f35b3480156100b257600080fd5b506100cd60048036036100c891908101906107b9565b6102b6565b6040516100da9190610a4d565b60405180910390f35b3480156100ef57600080fd5b506100f8610356565b60405161010591906109a1565b60405180910390f35b34801561011a57600080fd5b5061013560048036036101309190810190610838565b610504565b604051610144939291906109c3565b60405180910390f35b60008181548110151561015c57fe5b9060005260206000209060030201600091509050806000018054600181600116156101000203166002900480601f0160208091040260200160405190810160405280929190818152602001828054600181600116156101000203166002900480156102085780601f106101dd57610100808354040283529160200191610208565b820191906000526020600020905b8154815290600101906020018083116101eb57829003601f168201915b505050505090806001015490806002018054600181600116156101000203166002900480601f0160208091040260200160405190810160405280929190818152602001828054600181600116156101000203166002900480156102ac5780601f10610281576101008083540402835291602001916102ac565b820191906000526020600020905b81548152906001019060200180831161028f57829003601f168201915b5050505050905083565b6000806060604051908101604052808681526020018581526020018481525090806001815401808255809150509060018203906000526020600020906003020160009091929091909150600082015181600001908051906020019061031c9291906106aa565b506020820151816001015560408201518160020190805190602001906103439291906106aa565b5050505060008054905090509392505050565b60606000805480602002602001604051908101604052809291908181526020016000905b828210156104fb578382906000526020600020906003020160606040519081016040529081600082018054600181600116156101000203166002900480601f0160208091040260200160405190810160405280929190818152602001828054600181600116156101000203166002900480156104375780601f1061040c57610100808354040283529160200191610437565b820191906000526020600020905b81548152906001019060200180831161041a57829003601f168201915b5050505050815260200160018201548152602001600282018054600181600116156101000203166002900480601f0160208091040260200160405190810160405280929190818152602001828054600181600116156101000203166002900480156104e35780601f106104b8576101008083540402835291602001916104e3565b820191906000526020600020905b8154815290600101906020018083116104c657829003601f168201915b5050505050815250508152602001906001019061037a565b50505050905090565b60606000606060008481548110151561051957fe5b90600052602060002090600302016000018054600181600116156101000203166002900480601f0160208091040260200160405190810160405280929190818152602001828054600181600116156101000203166002900480156105be5780601f10610593576101008083540402835291602001916105be565b820191906000526020600020905b8154815290600101906020018083116105a157829003601f168201915b505050505092506000848154811015156105d457fe5b90600052602060002090600302016002018054600181600116156101000203166002900480601f0160208091040260200160405190810160405280929190818152602001828054600181600116156101000203166002900480156106795780601f1061064e57610100808354040283529160200191610679565b820191906000526020600020905b81548152906001019060200180831161065c57829003601f168201915b5050505050905060008481548110151561068f57fe5b90600052602060002090600302016001015491509193909250565b828054600181600116156101000203166002900490600052602060002090601f016020900481019282601f106106eb57805160ff1916838001178555610719565b82800160010185558215610719579182015b828111156107185782518255916020019190600101906106fd565b5b509050610726919061072a565b5090565b61074c91905b80821115610748576000816000905550600101610730565b5090565b90565b600082601f830112151561076257600080fd5b813561077561077082610a95565b610a68565b9150808252602083016020830185838301111561079157600080fd5b61079c838284610b10565b50505092915050565b60006107b18235610b06565b905092915050565b6000806000606084860312156107ce57600080fd5b600084013567ffffffffffffffff8111156107e857600080fd5b6107f48682870161074f565b9350506020610805868287016107a5565b925050604084013567ffffffffffffffff81111561082257600080fd5b61082e8682870161074f565b9150509250925092565b60006020828403121561084a57600080fd5b6000610858848285016107a5565b91505092915050565b600061086c82610ace565b8084526020840193508360208202850161088585610ac1565b60005b848110156108be5783830388526108a083835161093b565b92506108ab82610aef565b9150602088019750600181019050610888565b508196508694505050505092915050565b60006108da82610ae4565b8084526108ee816020860160208601610b1f565b6108f781610b52565b602085010191505092915050565b600061091082610ad9565b808452610924816020860160208601610b1f565b61092d81610b52565b602085010191505092915050565b600060608301600083015184820360008601526109588282610905565b915050602083015161096d6020860182610992565b50604083015184820360408601526109858282610905565b9150508091505092915050565b61099b81610afc565b82525050565b600060208201905081810360008301526109bb8184610861565b905092915050565b600060608201905081810360008301526109dd81866108cf565b90506109ec6020830185610992565b81810360408301526109fe81846108cf565b9050949350505050565b60006060820190508181036000830152610a228186610905565b9050610a316020830185610992565b8181036040830152610a438184610905565b9050949350505050565b6000602082019050610a626000830184610992565b92915050565b6000604051905081810181811067ffffffffffffffff82111715610a8b57600080fd5b8060405250919050565b600067ffffffffffffffff821115610aac57600080fd5b601f19601f8301169050602081019050919050565b6000602082019050919050565b600081519050919050565b600081519050919050565b600081519050919050565b6000602082019050919050565b6000819050919050565b6000819050919050565b82818337600083830152505050565b60005b83811015610b3d578082015181840152602081019050610b22565b83811115610b4c576000848401525b50505050565b6000601f19601f83011690509190505600a265627a7a72305820402c48e47e52c0d827b933d202247978a79c0b912cf9ab404a9dd39d5d8a605e6c6578706572696d656e74616cf50037",
  "source": "pragma solidity ^0.4.17;\npragma experimental ABIEncoderV2;\ncontract TruyXuatTT{\n    struct personal{\n        string name;\n        uint age;\n        string sex;\n    }\n    personal[] public lisPeople;\n    function setPeople(string _name, uint _age, string _sex) public returns (uint){\n        lisPeople.push(personal(_name,_age,_sex));\n        return lisPeople.length;\n    }\n    function getPeoplebyId(uint id) public view returns(string _name, uint _age, string _sex){\n            _name = lisPeople[id].name;\n            _sex = lisPeople[id].sex;\n            _age = lisPeople[id].age;\n    }\n    function getAllPeople() public view returns(personal[]){\n        return lisPeople;\n    }      \n}",
  "sourcePath": "/home/trientt/Desktop/dapp/HelloWorld/contracts/TruyXuatTT.sol",
  "compiler": {
    "name": "solc",
    "version": "0.4.24+commit.e67f0147.Emscripten.clang"
  },
  "schemaVersion": "2.0.1",
  "updatedAt": "2018-11-09T10:27:51.263Z"
}