{
  "contractName": "Banks",
  "abi": [
    {
      "inputs": [],
      "payable": false,
      "stateMutability": "nonpayable",
      "type": "constructor"
    },
    {
      "anonymous": false,
      "inputs": [
        {
          "indexed": false,
          "name": "id",
          "type": "address"
        },
        {
          "indexed": false,
          "name": "money",
          "type": "uint256"
        },
        {
          "indexed": false,
          "name": "time",
          "type": "uint256"
        }
      ],
      "name": "Deposit",
      "type": "event"
    },
    {
      "anonymous": false,
      "inputs": [
        {
          "indexed": false,
          "name": "id",
          "type": "address"
        },
        {
          "indexed": false,
          "name": "money",
          "type": "uint256"
        },
        {
          "indexed": false,
          "name": "time",
          "type": "uint256"
        }
      ],
      "name": "WithDraw",
      "type": "event"
    },
    {
      "constant": false,
      "inputs": [
        {
          "name": "_bankName",
          "type": "string"
        }
      ],
      "name": "renameBank",
      "outputs": [
        {
          "name": "",
          "type": "string"
        }
      ],
      "payable": false,
      "stateMutability": "nonpayable",
      "type": "function"
    },
    {
      "constant": true,
      "inputs": [],
      "name": "bankInformation",
      "outputs": [
        {
          "name": "",
          "type": "string"
        },
        {
          "name": "",
          "type": "address"
        }
      ],
      "payable": false,
      "stateMutability": "view",
      "type": "function"
    },
    {
      "constant": false,
      "inputs": [
        {
          "name": "_address",
          "type": "address"
        },
        {
          "name": "_money",
          "type": "uint256"
        }
      ],
      "name": "deposit",
      "outputs": [
        {
          "name": "",
          "type": "string"
        },
        {
          "name": "",
          "type": "uint256"
        }
      ],
      "payable": false,
      "stateMutability": "nonpayable",
      "type": "function"
    },
    {
      "constant": false,
      "inputs": [
        {
          "name": "_address",
          "type": "address"
        },
        {
          "name": "_money",
          "type": "uint256"
        }
      ],
      "name": "withDraw",
      "outputs": [
        {
          "name": "",
          "type": "string"
        },
        {
          "name": "",
          "type": "uint256"
        }
      ],
      "payable": false,
      "stateMutability": "nonpayable",
      "type": "function"
    }
  ],
  "bytecode": "0x608060405234801561001057600080fd5b506103e860018190555061c3506003819055506040805190810160405280601381526020017f4e67616e2068616e67205368696e6f42616e6b000000000000000000000000008152506000908051906020019061006e9291906100b5565b5033600260006101000a81548173ffffffffffffffffffffffffffffffffffffffff021916908373ffffffffffffffffffffffffffffffffffffffff16021790555061015a565b828054600181600116156101000203166002900490600052602060002090601f016020900481019282601f106100f657805160ff1916838001178555610124565b82800160010185558215610124579182015b82811115610123578251825591602001919060010190610108565b5b5090506101319190610135565b5090565b61015791905b8082111561015357600081600090555060010161013b565b5090565b90565b6109f1806101696000396000f300608060405260043610610062576000357c0100000000000000000000000000000000000000000000000000000000900463ffffffff168063191e2e83146100675780631c5edc42146101345780633fdc39631461021657806347e7ef24146102d9575b600080fd5b34801561007357600080fd5b506100b2600480360381019080803573ffffffffffffffffffffffffffffffffffffffff169060200190929190803590602001909291905050506103a6565b6040518080602001838152602001828103825284818151815260200191508051906020019080838360005b838110156100f85780820151818401526020810190506100dd565b50505050905090810190601f1680156101255780820380516001836020036101000a031916815260200191505b50935050505060405180910390f35b34801561014057600080fd5b5061019b600480360381019080803590602001908201803590602001908080601f0160208091040260200160405190810160405280939291908181526020018383808284378201915050505050509192919290505050610600565b6040518080602001828103825283818151815260200191508051906020019080838360005b838110156101db5780820151818401526020810190506101c0565b50505050905090810190601f1680156102085780820380516001836020036101000a031916815260200191505b509250505060405180910390f35b34801561022257600080fd5b5061022b610717565b60405180806020018373ffffffffffffffffffffffffffffffffffffffff1673ffffffffffffffffffffffffffffffffffffffff168152602001828103825284818151815260200191508051906020019080838360005b8381101561029d578082015181840152602081019050610282565b50505050905090810190601f1680156102ca5780820380516001836020036101000a031916815260200191505b50935050505060405180910390f35b3480156102e557600080fd5b50610324600480360381019080803573ffffffffffffffffffffffffffffffffffffffff169060200190929190803590602001909291905050506107e3565b6040518080602001838152602001828103825284818151815260200191508051906020019080838360005b8381101561036a57808201518184015260208101905061034f565b50505050905090810190601f1680156103975780820380516001836020036101000a031916815260200191505b50935050505060405180910390f35b60606000806000600560008773ffffffffffffffffffffffffffffffffffffffff1673ffffffffffffffffffffffffffffffffffffffff16815260200190815260200160002091508482600101540390507f368ba06b8e369ee83d3f43ca91b5ffb24662660cc0bbb2bf8c356cebcf42ad85868642604051808473ffffffffffffffffffffffffffffffffffffffff1673ffffffffffffffffffffffffffffffffffffffff168152602001838152602001828152602001935050505060405180910390a16003548110156104b95781600101546040805190810160405280601581526020017f53e1bb912064c6b0206b68c3b46e6720c491e1bba7000000000000000000000081525090935093506105f7565b6000600354868115156104c857fe5b06141561053b578160010154606060405190810160405280602d81526020017f53e1bb91207469e1bb816e2072c3ba74207068e1baa369206cc3a02062e1bb9981526020017f692063e1bba7612035303030300000000000000000000000000000000000000081525090935093506105f7565b848260010160008282540392505081905550816000018260010154818054600181600116156101000203166002900480601f0160208091040260200160405190810160405280929190818152602001828054600181600116156101000203166002900480156105eb5780601f106105c0576101008083540402835291602001916105eb565b820191906000526020600020905b8154815290600101906020018083116105ce57829003601f168201915b50505050509150935093505b50509250929050565b60603373ffffffffffffffffffffffffffffffffffffffff16600260009054906101000a900473ffffffffffffffffffffffffffffffffffffffff1673ffffffffffffffffffffffffffffffffffffffff1614151561065e57600080fd5b8160009080519060200190610674929190610920565b5060008054600181600116156101000203166002900480601f01602080910402602001604051908101604052809291908181526020018280546001816001161561010002031660029004801561070b5780601f106106e05761010080835404028352916020019161070b565b820191906000526020600020905b8154815290600101906020018083116106ee57829003601f168201915b50505050509050919050565b6060600080600260009054906101000a900473ffffffffffffffffffffffffffffffffffffffff16818054600181600116156101000203166002900480601f0160208091040260200160405190810160405280929190818152602001828054600181600116156101000203166002900480156107d45780601f106107a9576101008083540402835291602001916107d4565b820191906000526020600020905b8154815290600101906020018083116107b757829003601f168201915b50505050509150915091509091565b60606000806000600560008773ffffffffffffffffffffffffffffffffffffffff1673ffffffffffffffffffffffffffffffffffffffff16815260200190815260200160002091508482600101540190508082600101819055507f90890809c654f11d6e72a28fa60149770a0d11ec6c92319d6ceb2bb0a4ea1a15868642604051808473ffffffffffffffffffffffffffffffffffffffff1673ffffffffffffffffffffffffffffffffffffffff168152602001838152602001828152602001935050505060405180910390a18160010154606060405190810160405280603581526020017f47e1bbad69207469e1bb816e207468c3a06e682063c3b46e672e2053e1bb912081526020017f64c6b02063e1bba7612062e1baa16e206cc3a03a200000000000000000000000815250909350935050509250929050565b828054600181600116156101000203166002900490600052602060002090601f016020900481019282601f1061096157805160ff191683800117855561098f565b8280016001018555821561098f579182015b8281111561098e578251825591602001919060010190610973565b5b50905061099c91906109a0565b5090565b6109c291905b808211156109be5760008160009055506001016109a6565b5090565b905600a165627a7a72305820e60e8c9448c8aaef1ec7761243d1c3338b0172e503462c22ceea49268872d35e0029",
  "source": "pragma solidity ^0.4.23;\n\ncontract Banks {\n    string bankName;\n    uint money;\n    address owner;\n    uint defaultMoney;\n\n    struct Bank {\n        string customer;\n        uint money;\n        address id;\n    }\n    struct TransactionsDict {\n        address from;\n        address to;\n        uint value;\n        uint time;\n    }\n    mapping (uint => TransactionsDict) transactions;\n    mapping (address => Bank) banks;\n    address[] listCustomers;\n\n    // check owner\n    modifier onlyOwner(){\n        require(owner == msg.sender);\n        _;\n    }\n\n    // - Tạo contructor Bank , \n\t// + khởi tạo gồm 3 tham số trên, mặc định số tiền của ngân hàng = 1000\n    constructor (){\n        money = 1000;\n        defaultMoney = 50000;\n        bankName = \"Ngan hang ShinoBank\";\n        owner = msg.sender;\n    }\n\n    event Deposit (address id, uint money, uint time);\n    event WithDraw (address id, uint money, uint time);\n\n    // + tao 1 function đổi tên ngân hàng , trong đó chỉ chủ sở hữu ngân hàng mới có thể thay đổi\n    function renameBank(string _bankName) onlyOwner returns (string) {\n        bankName = _bankName;\n        return bankName;\n    }\n\n    // + Lấy ra thông tin của ngân hàng, ai cũng có thể xem thông tin \n    function bankInformation() view public returns(string, address){\n        return (bankName, owner);\n    }\n\n    // - Tạo 1 interface gồm các function\n\t// + Gửi Tiền\n\t// + Rút Tiền\n\n    function deposit(address _address, uint _money) public returns (string, uint){\n        Bank storage bank = banks[_address];\n        uint amount = bank.money + _money;\n        bank.money = amount;\n        emit Deposit (_address, _money, now);\n        return (\"Gửi tiền thành công. Số dư của bạn là: \", bank.money);\n        \n    }\n\n    // check money\n    // modifier hasBank(address _address){\n    //     var bank = banks[_address];\n    //     require(bank.money > defaultMoney);\n    //     _;\n    // }\n\n    // function withDraw(address _address, uint _money) hasBank(address _address) public {\n    //     var bank = banks[_address];\n    //     bank.money -= _money;\n    // }\n    function withDraw(address _address, uint _money)  public returns(string, uint) {\n        Bank storage bank = banks[_address];\n        uint amount = bank.money - _money;\n        emit WithDraw (_address, _money, now);\n\n        if (amount < defaultMoney) {\n            return (\"Số dư không đủ\", bank.money);\n        }else if ((_money % defaultMoney) == 0) { // not working\n            return (\"Số tiền rút phải là bội của 50000\", bank.money);\n        }else {\n            bank.money -= _money;\n            return (bank.customer, bank.money);\n        }\n\n        \n        \n    }\n}\n",
  "sourcePath": "/home/thachnguyen/apps/blockchain/vinsofts-blockchain-training-Oct2018/shino-kun/practice/ex6-truffle/bank/contracts/Banks.sol",
  "compiler": {
    "name": "solc",
    "version": "0.4.24+commit.e67f0147.Emscripten.clang"
  },
  "schemaVersion": "2.0.1",
  "updatedAt": "2018-11-07T07:10:35.234Z"
}