{
  "contractName": "Transactions",
  "abi": [
    {
      "constant": false,
      "inputs": [
        {
          "name": "_address",
          "type": "address"
        },
        {
          "name": "_money",
          "type": "uint256"
        }
      ],
      "name": "withDraw",
      "outputs": [
        {
          "name": "",
          "type": "string"
        },
        {
          "name": "",
          "type": "uint256"
        }
      ],
      "payable": false,
      "stateMutability": "nonpayable",
      "type": "function"
    },
    {
      "constant": false,
      "inputs": [
        {
          "name": "_bankName",
          "type": "string"
        }
      ],
      "name": "renameBank",
      "outputs": [
        {
          "name": "",
          "type": "string"
        }
      ],
      "payable": false,
      "stateMutability": "nonpayable",
      "type": "function"
    },
    {
      "constant": true,
      "inputs": [],
      "name": "bankInformation",
      "outputs": [
        {
          "name": "",
          "type": "string"
        },
        {
          "name": "",
          "type": "address"
        }
      ],
      "payable": false,
      "stateMutability": "view",
      "type": "function"
    },
    {
      "constant": false,
      "inputs": [
        {
          "name": "_address",
          "type": "address"
        },
        {
          "name": "_money",
          "type": "uint256"
        }
      ],
      "name": "deposit",
      "outputs": [
        {
          "name": "",
          "type": "string"
        },
        {
          "name": "",
          "type": "uint256"
        }
      ],
      "payable": false,
      "stateMutability": "nonpayable",
      "type": "function"
    },
    {
      "anonymous": false,
      "inputs": [
        {
          "indexed": false,
          "name": "id",
          "type": "address"
        },
        {
          "indexed": false,
          "name": "money",
          "type": "uint256"
        },
        {
          "indexed": false,
          "name": "time",
          "type": "uint256"
        }
      ],
      "name": "Deposit",
      "type": "event"
    },
    {
      "anonymous": false,
      "inputs": [
        {
          "indexed": false,
          "name": "id",
          "type": "address"
        },
        {
          "indexed": false,
          "name": "money",
          "type": "uint256"
        },
        {
          "indexed": false,
          "name": "time",
          "type": "uint256"
        }
      ],
      "name": "WithDraw",
      "type": "event"
    },
    {
      "constant": false,
      "inputs": [
        {
          "name": "_address",
          "type": "address"
        },
        {
          "name": "_customer",
          "type": "string"
        }
      ],
      "name": "openBank",
      "outputs": [
        {
          "name": "",
          "type": "string"
        },
        {
          "name": "",
          "type": "address"
        },
        {
          "name": "",
          "type": "string"
        },
        {
          "name": "",
          "type": "uint256"
        }
      ],
      "payable": false,
      "stateMutability": "nonpayable",
      "type": "function"
    },
    {
      "constant": false,
      "inputs": [
        {
          "name": "_address",
          "type": "address"
        }
      ],
      "name": "myBank",
      "outputs": [
        {
          "name": "",
          "type": "string"
        },
        {
          "name": "",
          "type": "string"
        },
        {
          "name": "",
          "type": "uint256"
        },
        {
          "name": "",
          "type": "address"
        }
      ],
      "payable": false,
      "stateMutability": "nonpayable",
      "type": "function"
    },
    {
      "constant": false,
      "inputs": [
        {
          "name": "from",
          "type": "address"
        },
        {
          "name": "to",
          "type": "address"
        },
        {
          "name": "money",
          "type": "uint256"
        }
      ],
      "name": "sendMoney",
      "outputs": [
        {
          "name": "",
          "type": "string"
        }
      ],
      "payable": false,
      "stateMutability": "nonpayable",
      "type": "function"
    },
    {
      "constant": false,
      "inputs": [
        {
          "name": "from",
          "type": "address"
        },
        {
          "name": "to",
          "type": "address"
        }
      ],
      "name": "transactionHistory",
      "outputs": [],
      "payable": false,
      "stateMutability": "nonpayable",
      "type": "function"
    },
    {
      "constant": false,
      "inputs": [],
      "name": "getListCustomer",
      "outputs": [
        {
          "name": "",
          "type": "address[]"
        }
      ],
      "payable": false,
      "stateMutability": "nonpayable",
      "type": "function"
    }
  ],
  "bytecode": "0x60806040526103e860018190555061c3506003819055506040805190810160405280601381526020017f4e67616e2068616e67205368696e6f42616e6b000000000000000000000000008152506000908051906020019062000063929190620000ab565b5033600260006101000a81548173ffffffffffffffffffffffffffffffffffffffff021916908373ffffffffffffffffffffffffffffffffffffffff1602179055506200015a565b828054600181600116156101000203166002900490600052602060002090601f016020900481019282601f10620000ee57805160ff19168380011785556200011f565b828001600101855582156200011f579182015b828111156200011e57825182559160200191906001019062000101565b5b5090506200012e919062000132565b5090565b6200015791905b808211156200015357600081600090555060010162000139565b5090565b90565b61159e806200016a6000396000f300608060405260043610610099576000357c0100000000000000000000000000000000000000000000000000000000900463ffffffff1680630505f5d41461009e578063191e2e83146101015780631c5edc42146101ce5780633281cd0a146102b05780633fdc39631461041257806347e7ef24146104d5578063560748d4146105a2578063ae3425821461074a578063ed7ef0a314610830575b600080fd5b3480156100aa57600080fd5b506100ff600480360381019080803573ffffffffffffffffffffffffffffffffffffffff169060200190929190803573ffffffffffffffffffffffffffffffffffffffff16906020019092919050505061089c565b005b34801561010d57600080fd5b5061014c600480360381019080803573ffffffffffffffffffffffffffffffffffffffff16906020019092919080359060200190929190505050610950565b6040518080602001838152602001828103825284818151815260200191508051906020019080838360005b83811015610192578082015181840152602081019050610177565b50505050905090810190601f1680156101bf5780820380516001836020036101000a031916815260200191505b50935050505060405180910390f35b3480156101da57600080fd5b50610235600480360381019080803590602001908201803590602001908080601f0160208091040260200160405190810160405280939291908181526020018383808284378201915050505050509192919290505050610baa565b6040518080602001828103825283818151815260200191508051906020019080838360005b8381101561027557808201518184015260208101905061025a565b50505050905090810190601f1680156102a25780820380516001836020036101000a031916815260200191505b509250505060405180910390f35b3480156102bc57600080fd5b506102f1600480360381019080803573ffffffffffffffffffffffffffffffffffffffff169060200190929190505050610cc1565b6040518080602001806020018581526020018473ffffffffffffffffffffffffffffffffffffffff1673ffffffffffffffffffffffffffffffffffffffff168152602001838103835287818151815260200191508051906020019080838360005b8381101561036d578082015181840152602081019050610352565b50505050905090810190601f16801561039a5780820380516001836020036101000a031916815260200191505b50838103825286818151815260200191508051906020019080838360005b838110156103d35780820151818401526020810190506103b8565b50505050905090810190601f1680156104005780820380516001836020036101000a031916815260200191505b50965050505050505060405180910390f35b34801561041e57600080fd5b50610427610e44565b60405180806020018373ffffffffffffffffffffffffffffffffffffffff1673ffffffffffffffffffffffffffffffffffffffff168152602001828103825284818151815260200191508051906020019080838360005b8381101561049957808201518184015260208101905061047e565b50505050905090810190601f1680156104c65780820380516001836020036101000a031916815260200191505b50935050505060405180910390f35b3480156104e157600080fd5b50610520600480360381019080803573ffffffffffffffffffffffffffffffffffffffff16906020019092919080359060200190929190505050610f10565b6040518080602001838152602001828103825284818151815260200191508051906020019080838360005b8381101561056657808201518184015260208101905061054b565b50505050905090810190601f1680156105935780820380516001836020036101000a031916815260200191505b50935050505060405180910390f35b3480156105ae57600080fd5b50610629600480360381019080803573ffffffffffffffffffffffffffffffffffffffff169060200190929190803590602001908201803590602001908080601f016020809104026020016040519081016040528093929190818152602001838380828437820191505050505050919291929050505061104d565b60405180806020018573ffffffffffffffffffffffffffffffffffffffff1673ffffffffffffffffffffffffffffffffffffffff16815260200180602001848152602001838103835287818151815260200191508051906020019080838360005b838110156106a557808201518184015260208101905061068a565b50505050905090810190601f1680156106d25780820380516001836020036101000a031916815260200191505b50838103825285818151815260200191508051906020019080838360005b8381101561070b5780820151818401526020810190506106f0565b50505050905090810190601f1680156107385780820380516001836020036101000a031916815260200191505b50965050505050505060405180910390f35b34801561075657600080fd5b506107b5600480360381019080803573ffffffffffffffffffffffffffffffffffffffff169060200190929190803573ffffffffffffffffffffffffffffffffffffffff169060200190929190803590602001909291905050506112a0565b6040518080602001828103825283818151815260200191508051906020019080838360005b838110156107f55780820151818401526020810190506107da565b50505050905090810190601f1680156108225780820380516001836020036101000a031916815260200191505b509250505060405180910390f35b34801561083c57600080fd5b506108456113e3565b6040518080602001828103825283818151815260200191508051906020019060200280838360005b8381101561088857808201518184015260208101905061086d565b505050509050019250505060405180910390f35b6000600460004281526020019081526020016000209050828160000160006101000a81548173ffffffffffffffffffffffffffffffffffffffff021916908373ffffffffffffffffffffffffffffffffffffffff160217905550818160010160006101000a81548173ffffffffffffffffffffffffffffffffffffffff021916908373ffffffffffffffffffffffffffffffffffffffff160217905550348160020181905550428160030181905550505050565b60606000806000600560008773ffffffffffffffffffffffffffffffffffffffff1673ffffffffffffffffffffffffffffffffffffffff16815260200190815260200160002091508482600101540390507f368ba06b8e369ee83d3f43ca91b5ffb24662660cc0bbb2bf8c356cebcf42ad85868642604051808473ffffffffffffffffffffffffffffffffffffffff1673ffffffffffffffffffffffffffffffffffffffff168152602001838152602001828152602001935050505060405180910390a1600354811015610a635781600101546040805190810160405280601581526020017f53e1bb912064c6b0206b68c3b46e6720c491e1bba700000000000000000000008152509093509350610ba1565b600060035486811515610a7257fe5b061415610ae5578160010154606060405190810160405280602d81526020017f53e1bb91207469e1bb816e2072c3ba74207068e1baa369206cc3a02062e1bb9981526020017f692063e1bba761203530303030000000000000000000000000000000000000008152509093509350610ba1565b848260010160008282540392505081905550816000018260010154818054600181600116156101000203166002900480601f016020809104026020016040519081016040528092919081815260200182805460018160011615610100020316600290048015610b955780601f10610b6a57610100808354040283529160200191610b95565b820191906000526020600020905b815481529060010190602001808311610b7857829003601f168201915b50505050509150935093505b50509250929050565b60603373ffffffffffffffffffffffffffffffffffffffff16600260009054906101000a900473ffffffffffffffffffffffffffffffffffffffff1673ffffffffffffffffffffffffffffffffffffffff16141515610c0857600080fd5b8160009080519060200190610c1e9291906114cd565b5060008054600181600116156101000203166002900480601f016020809104026020016040519081016040528092919081815260200182805460018160011615610100020316600290048015610cb55780601f10610c8a57610100808354040283529160200191610cb5565b820191906000526020600020905b815481529060010190602001808311610c9857829003601f168201915b50505050509050919050565b6060806000806000600560008773ffffffffffffffffffffffffffffffffffffffff1673ffffffffffffffffffffffffffffffffffffffff16815260200190815260200160002090508060000181600101548260020160009054906101000a900473ffffffffffffffffffffffffffffffffffffffff16606060405190810160405280602781526020017f53e1bb912064c6b02074c3a069206b686fe1baa36e2063e1bba7612062e1baa181526020017f6e206cc3a03a2000000000000000000000000000000000000000000000000000815250929190828054600181600116156101000203166002900480601f016020809104026020016040519081016040528092919081815260200182805460018160011615610100020316600290048015610e2d5780601f10610e0257610100808354040283529160200191610e2d565b820191906000526020600020905b815481529060010190602001808311610e1057829003601f168201915b505050505092509450945094509450509193509193565b6060600080600260009054906101000a900473ffffffffffffffffffffffffffffffffffffffff16818054600181600116156101000203166002900480601f016020809104026020016040519081016040528092919081815260200182805460018160011615610100020316600290048015610f015780601f10610ed657610100808354040283529160200191610f01565b820191906000526020600020905b815481529060010190602001808311610ee457829003601f168201915b50505050509150915091509091565b60606000806000600560008773ffffffffffffffffffffffffffffffffffffffff1673ffffffffffffffffffffffffffffffffffffffff16815260200190815260200160002091508482600101540190508082600101819055507f90890809c654f11d6e72a28fa60149770a0d11ec6c92319d6ceb2bb0a4ea1a15868642604051808473ffffffffffffffffffffffffffffffffffffffff1673ffffffffffffffffffffffffffffffffffffffff168152602001838152602001828152602001935050505060405180910390a18160010154606060405190810160405280603581526020017f47e1bbad69207469e1bb816e207468c3a06e682063c3b46e672e2053e1bb912081526020017f64c6b02063e1bba7612062e1baa16e206cc3a03a200000000000000000000000815250909350935050509250929050565b606060006060600080600560008873ffffffffffffffffffffffffffffffffffffffff1673ffffffffffffffffffffffffffffffffffffffff1681526020019081526020016000209050858160000190805190602001906110af9291906114cd565b506003548160010181905550868160020160006101000a81548173ffffffffffffffffffffffffffffffffffffffff021916908373ffffffffffffffffffffffffffffffffffffffff16021790555060068790806001815401808255809150509060018203906000526020600020016000909192909190916101000a81548173ffffffffffffffffffffffffffffffffffffffff021916908373ffffffffffffffffffffffffffffffffffffffff160217905550508060020160009054906101000a900473ffffffffffffffffffffffffffffffffffffffff16816000018260010154606060405190810160405280602b81526020017f42e1baa16e20c491c3a3206de1bb9f2074c3a069206b686fe1baa36e207468c381526020017fa06e682063c3b46e672e20000000000000000000000000000000000000000000815250929190818054600181600116156101000203166002900480601f0160208091040260200160405190810160405280929190818152602001828054600181600116156101000203166002900480156112875780601f1061125c57610100808354040283529160200191611287565b820191906000526020600020905b81548152906001019060200180831161126a57829003601f168201915b5050505050915094509450945094505092959194509250565b6060600080600080600560008973ffffffffffffffffffffffffffffffffffffffff1673ffffffffffffffffffffffffffffffffffffffff1681526020019081526020016000209350600560008873ffffffffffffffffffffffffffffffffffffffff1673ffffffffffffffffffffffffffffffffffffffff1681526020019081526020016000209250858460010154039150858360010154019050600354821015611383576040805190810160405280601581526020017f73e1bb912064c6b0206b68c3b46e6720c491e1bba7000000000000000000000081525094506113d8565b81846001018190555080836001018190555061139f888861089c565b6040805190810160405280601a81526020017f47e1bbad69207469e1bb816e207468c3a06e682063c3b46e672e00000000000081525094505b505050509392505050565b60603373ffffffffffffffffffffffffffffffffffffffff16600260009054906101000a900473ffffffffffffffffffffffffffffffffffffffff1673ffffffffffffffffffffffffffffffffffffffff1614151561144157600080fd5b60068054806020026020016040519081016040528092919081815260200182805480156114c357602002820191906000526020600020905b8160009054906101000a900473ffffffffffffffffffffffffffffffffffffffff1673ffffffffffffffffffffffffffffffffffffffff1681526020019060010190808311611479575b5050505050905090565b828054600181600116156101000203166002900490600052602060002090601f016020900481019282601f1061150e57805160ff191683800117855561153c565b8280016001018555821561153c579182015b8281111561153b578251825591602001919060010190611520565b5b509050611549919061154d565b5090565b61156f91905b8082111561156b576000816000905550600101611553565b5090565b905600a165627a7a72305820dafa2c38d07b771869bf31d2d65b2972b3e560ef9d90701af8112e00b03c47310029",
  "source": "pragma solidity ^0.4.23;\nimport \"./Banks.sol\";\n\ncontract Transactions is Banks { \n\t// + Lưu lịch sử giao dịch vào con tract gồm các thông tin + from  \n\t// \t\t\t\t\t\t\t+ to, \n\t// \t\t\t\t\t\t\t+ value\n\t// \t\t\t\t\t\t\t+ time\n    \n    // - Tạo contract Bank2 thừa kế Bank1, interface phía trên\n\t// + tao một chức năng đăng ký tài khoản cho người dùng\t\n\t// \t+ Gồm :  +tên\n\t// \t\t +id\n\t// \t\t +số dư (default = 0)\n\t// + lưu thông tin người dùng vào contract \n    function openBank(address _address, string _customer) public returns(string, address, string, uint){\n        Bank storage bank = banks[_address];\n        bank.customer = _customer;\n        bank.money = defaultMoney;\n        bank.id = _address;\n        listCustomers.push(_address);\n        return (\"Bạn đã mở tài khoản thành công. \", bank.id, bank.customer, bank.money);\n    }\n\n    // + Tạo 1 chức năng lấy ra thông tin tài khoản, chỉ lấy ra thông tin tài khoản của chính nó\n    function myBank (address _address) public returns (string, string, uint, address){\n        Bank storage bank = banks[_address];\n        return (\"Số dư tài khoản của bạn là: \", bank.customer, bank.money, bank.id);\n    }\n\n    // + implement chức năng gửi tiền cho 1 tài khoản khác,  ( tạo event khi gửi thành công)\n    // + implement rút tiền Tổng số tiền của ngân hàng sẽ bị trừ theo (tạo event khi rút tiền thành công )\n    function sendMoney(address from, address to, uint money) public returns (string){\n        Bank storage fromBank = banks[from];\n        Bank storage toBank = banks[to];\n        // toBank.money += money; not working\n        uint fromAmount = fromBank.money - money;\n        uint toAmount = toBank.money + money;\n        if (fromAmount < defaultMoney){\n            return \"số dư không đủ\";\n        }else {\n            fromBank.money = fromAmount;\n            toBank.money = toAmount;\n            transactionHistory(from, to);\n            return \"Gửi tiền thành công.\";\n        }\n        \n    }\n\n    \n    function transactionHistory(address from, address to) public {\n        TransactionsDict storage transaction = transactions[now];\n        transaction.from = from;\n        transaction.to = to;\n        transaction.value = msg.value;\n        transaction.time = now;\n    }\n\n    // + lấy ra danh sách khách hàng, chỉ owner mới được lấy ra\n    function getListCustomer() onlyOwner returns (address[]){\n        return listCustomers;\n    }\n}",
  "sourcePath": "/home/thachnguyen/apps/blockchain/vinsofts-blockchain-training-Oct2018/shino-kun/practice/ex6-truffle/bank/contracts/Transactions.sol",
  "compiler": {
    "name": "solc",
    "version": "0.4.24+commit.e67f0147.Emscripten.clang"
  },
  "schemaVersion": "2.0.1",
  "updatedAt": "2018-11-07T07:10:35.602Z"
}