{
  "contractName": "ERC223Interface",
  "abi": [
    {
      "constant": true,
      "inputs": [],
      "name": "totalSupply",
      "outputs": [
        {
          "name": "",
          "type": "uint256"
        }
      ],
      "payable": false,
      "stateMutability": "view",
      "type": "function"
    }
  ],
  "bytecode": "0x6080604052348015600f57600080fd5b50609e8061001e6000396000f300608060405260043610603f576000357c0100000000000000000000000000000000000000000000000000000000900463ffffffff16806318160ddd146044575b600080fd5b348015604f57600080fd5b506056606c565b6040518082815260200191505060405180910390f35b600054815600a165627a7a72305820db1d9d2a28cb66fd0e0358cb216c2e3b765d17d66975565b1eb220c451c101570029",
  "source": "pragma solidity ^0.4.2;\n\ncontract ERC223Interface {\n    uint public totalSupply;\n    // function balanceOf(address who) constant returns (uint);\n    // function transfer(address to, uint value);\n    // function transferData(address to, uint value, bytes data);\n    // event Transfer(address indexed from, address indexed to, uint value, bytes data);\n}\n\ncontract TestERC223 is ERC223Interface {\n    mapping (address => uint) balanceOf;\n\n    constructor () {\n        balanceOf[msg.sender] = 1000;\n    }\n\n    function balanceOfSender() public returns (uint value) {\n        return balanceOf[msg.sender];\n    }\n}",
  "sourcePath": "/home/thachnguyen/apps/blockchain/vinsofts-blockchain-training-Oct2018/shino-kun/learn/truffle/test/contracts/ERC223.sol",
  "compiler": {
    "name": "solc",
    "version": "0.4.24+commit.e67f0147.Emscripten.clang"
  },
  "schemaVersion": "2.0.1",
  "updatedAt": "2018-11-07T02:58:56.432Z"
}